{
  "contractName": "familyAus1155",
  "abi": [
    {
      "inputs": [],
      "stateMutability": "nonpayable",
      "type": "constructor"
    },
    {
      "anonymous": false,
      "inputs": [
        {
          "indexed": true,
          "internalType": "address",
          "name": "account",
          "type": "address"
        },
        {
          "indexed": true,
          "internalType": "address",
          "name": "operator",
          "type": "address"
        },
        {
          "indexed": false,
          "internalType": "bool",
          "name": "approved",
          "type": "bool"
        }
      ],
      "name": "ApprovalForAll",
      "type": "event"
    },
    {
      "anonymous": false,
      "inputs": [
        {
          "indexed": true,
          "internalType": "address",
          "name": "previousOwner",
          "type": "address"
        },
        {
          "indexed": true,
          "internalType": "address",
          "name": "newOwner",
          "type": "address"
        }
      ],
      "name": "OwnershipTransferred",
      "type": "event"
    },
    {
      "anonymous": false,
      "inputs": [
        {
          "indexed": true,
          "internalType": "address",
          "name": "operator",
          "type": "address"
        },
        {
          "indexed": true,
          "internalType": "address",
          "name": "from",
          "type": "address"
        },
        {
          "indexed": true,
          "internalType": "address",
          "name": "to",
          "type": "address"
        },
        {
          "indexed": false,
          "internalType": "uint256[]",
          "name": "ids",
          "type": "uint256[]"
        },
        {
          "indexed": false,
          "internalType": "uint256[]",
          "name": "values",
          "type": "uint256[]"
        }
      ],
      "name": "TransferBatch",
      "type": "event"
    },
    {
      "anonymous": false,
      "inputs": [
        {
          "indexed": true,
          "internalType": "address",
          "name": "operator",
          "type": "address"
        },
        {
          "indexed": true,
          "internalType": "address",
          "name": "from",
          "type": "address"
        },
        {
          "indexed": true,
          "internalType": "address",
          "name": "to",
          "type": "address"
        },
        {
          "indexed": false,
          "internalType": "uint256",
          "name": "id",
          "type": "uint256"
        },
        {
          "indexed": false,
          "internalType": "uint256",
          "name": "value",
          "type": "uint256"
        }
      ],
      "name": "TransferSingle",
      "type": "event"
    },
    {
      "anonymous": false,
      "inputs": [
        {
          "indexed": false,
          "internalType": "string",
          "name": "value",
          "type": "string"
        },
        {
          "indexed": true,
          "internalType": "uint256",
          "name": "id",
          "type": "uint256"
        }
      ],
      "name": "URI",
      "type": "event"
    },
    {
      "inputs": [],
      "name": "Blue_l",
      "outputs": [
        {
          "internalType": "uint256",
          "name": "",
          "type": "uint256"
        }
      ],
      "stateMutability": "view",
      "type": "function",
      "constant": true
    },
    {
      "inputs": [],
      "name": "Blue_m",
      "outputs": [
        {
          "internalType": "uint256",
          "name": "",
          "type": "uint256"
        }
      ],
      "stateMutability": "view",
      "type": "function",
      "constant": true
    },
    {
      "inputs": [],
      "name": "Blue_s",
      "outputs": [
        {
          "internalType": "uint256",
          "name": "",
          "type": "uint256"
        }
      ],
      "stateMutability": "view",
      "type": "function",
      "constant": true
    },
    {
      "inputs": [],
      "name": "Blue_xl",
      "outputs": [
        {
          "internalType": "uint256",
          "name": "",
          "type": "uint256"
        }
      ],
      "stateMutability": "view",
      "type": "function",
      "constant": true
    },
    {
      "inputs": [],
      "name": "Blue_xs",
      "outputs": [
        {
          "internalType": "uint256",
          "name": "",
          "type": "uint256"
        }
      ],
      "stateMutability": "view",
      "type": "function",
      "constant": true
    },
    {
      "inputs": [],
      "name": "Choc_l",
      "outputs": [
        {
          "internalType": "uint256",
          "name": "",
          "type": "uint256"
        }
      ],
      "stateMutability": "view",
      "type": "function",
      "constant": true
    },
    {
      "inputs": [],
      "name": "Choc_m",
      "outputs": [
        {
          "internalType": "uint256",
          "name": "",
          "type": "uint256"
        }
      ],
      "stateMutability": "view",
      "type": "function",
      "constant": true
    },
    {
      "inputs": [],
      "name": "Choc_s",
      "outputs": [
        {
          "internalType": "uint256",
          "name": "",
          "type": "uint256"
        }
      ],
      "stateMutability": "view",
      "type": "function",
      "constant": true
    },
    {
      "inputs": [],
      "name": "Choc_xl",
      "outputs": [
        {
          "internalType": "uint256",
          "name": "",
          "type": "uint256"
        }
      ],
      "stateMutability": "view",
      "type": "function",
      "constant": true
    },
    {
      "inputs": [],
      "name": "Choc_xs",
      "outputs": [
        {
          "internalType": "uint256",
          "name": "",
          "type": "uint256"
        }
      ],
      "stateMutability": "view",
      "type": "function",
      "constant": true
    },
    {
      "inputs": [],
      "name": "Grn_l",
      "outputs": [
        {
          "internalType": "uint256",
          "name": "",
          "type": "uint256"
        }
      ],
      "stateMutability": "view",
      "type": "function",
      "constant": true
    },
    {
      "inputs": [],
      "name": "Grn_m",
      "outputs": [
        {
          "internalType": "uint256",
          "name": "",
          "type": "uint256"
        }
      ],
      "stateMutability": "view",
      "type": "function",
      "constant": true
    },
    {
      "inputs": [],
      "name": "Grn_s",
      "outputs": [
        {
          "internalType": "uint256",
          "name": "",
          "type": "uint256"
        }
      ],
      "stateMutability": "view",
      "type": "function",
      "constant": true
    },
    {
      "inputs": [],
      "name": "Grn_xl",
      "outputs": [
        {
          "internalType": "uint256",
          "name": "",
          "type": "uint256"
        }
      ],
      "stateMutability": "view",
      "type": "function",
      "constant": true
    },
    {
      "inputs": [],
      "name": "Grn_xs",
      "outputs": [
        {
          "internalType": "uint256",
          "name": "",
          "type": "uint256"
        }
      ],
      "stateMutability": "view",
      "type": "function",
      "constant": true
    },
    {
      "inputs": [],
      "name": "Olve_l",
      "outputs": [
        {
          "internalType": "uint256",
          "name": "",
          "type": "uint256"
        }
      ],
      "stateMutability": "view",
      "type": "function",
      "constant": true
    },
    {
      "inputs": [],
      "name": "Olve_m",
      "outputs": [
        {
          "internalType": "uint256",
          "name": "",
          "type": "uint256"
        }
      ],
      "stateMutability": "view",
      "type": "function",
      "constant": true
    },
    {
      "inputs": [],
      "name": "Olve_s",
      "outputs": [
        {
          "internalType": "uint256",
          "name": "",
          "type": "uint256"
        }
      ],
      "stateMutability": "view",
      "type": "function",
      "constant": true
    },
    {
      "inputs": [],
      "name": "Olve_xl",
      "outputs": [
        {
          "internalType": "uint256",
          "name": "",
          "type": "uint256"
        }
      ],
      "stateMutability": "view",
      "type": "function",
      "constant": true
    },
    {
      "inputs": [],
      "name": "Olve_xs",
      "outputs": [
        {
          "internalType": "uint256",
          "name": "",
          "type": "uint256"
        }
      ],
      "stateMutability": "view",
      "type": "function",
      "constant": true
    },
    {
      "inputs": [],
      "name": "Sand_l",
      "outputs": [
        {
          "internalType": "uint256",
          "name": "",
          "type": "uint256"
        }
      ],
      "stateMutability": "view",
      "type": "function",
      "constant": true
    },
    {
      "inputs": [],
      "name": "Sand_m",
      "outputs": [
        {
          "internalType": "uint256",
          "name": "",
          "type": "uint256"
        }
      ],
      "stateMutability": "view",
      "type": "function",
      "constant": true
    },
    {
      "inputs": [],
      "name": "Sand_s",
      "outputs": [
        {
          "internalType": "uint256",
          "name": "",
          "type": "uint256"
        }
      ],
      "stateMutability": "view",
      "type": "function",
      "constant": true
    },
    {
      "inputs": [],
      "name": "Sand_xl",
      "outputs": [
        {
          "internalType": "uint256",
          "name": "",
          "type": "uint256"
        }
      ],
      "stateMutability": "view",
      "type": "function",
      "constant": true
    },
    {
      "inputs": [],
      "name": "Sand_xs",
      "outputs": [
        {
          "internalType": "uint256",
          "name": "",
          "type": "uint256"
        }
      ],
      "stateMutability": "view",
      "type": "function",
      "constant": true
    },
    {
      "inputs": [
        {
          "internalType": "address",
          "name": "account",
          "type": "address"
        },
        {
          "internalType": "uint256",
          "name": "id",
          "type": "uint256"
        }
      ],
      "name": "balanceOf",
      "outputs": [
        {
          "internalType": "uint256",
          "name": "",
          "type": "uint256"
        }
      ],
      "stateMutability": "view",
      "type": "function",
      "constant": true
    },
    {
      "inputs": [
        {
          "internalType": "address[]",
          "name": "accounts",
          "type": "address[]"
        },
        {
          "internalType": "uint256[]",
          "name": "ids",
          "type": "uint256[]"
        }
      ],
      "name": "balanceOfBatch",
      "outputs": [
        {
          "internalType": "uint256[]",
          "name": "",
          "type": "uint256[]"
        }
      ],
      "stateMutability": "view",
      "type": "function",
      "constant": true
    },
    {
      "inputs": [
        {
          "internalType": "address",
          "name": "account",
          "type": "address"
        },
        {
          "internalType": "address",
          "name": "operator",
          "type": "address"
        }
      ],
      "name": "isApprovedForAll",
      "outputs": [
        {
          "internalType": "bool",
          "name": "",
          "type": "bool"
        }
      ],
      "stateMutability": "view",
      "type": "function",
      "constant": true
    },
    {
      "inputs": [],
      "name": "owner",
      "outputs": [
        {
          "internalType": "address",
          "name": "",
          "type": "address"
        }
      ],
      "stateMutability": "view",
      "type": "function",
      "constant": true
    },
    {
      "inputs": [],
      "name": "renounceOwnership",
      "outputs": [],
      "stateMutability": "nonpayable",
      "type": "function"
    },
    {
      "inputs": [
        {
          "internalType": "address",
          "name": "from",
          "type": "address"
        },
        {
          "internalType": "address",
          "name": "to",
          "type": "address"
        },
        {
          "internalType": "uint256[]",
          "name": "ids",
          "type": "uint256[]"
        },
        {
          "internalType": "uint256[]",
          "name": "amounts",
          "type": "uint256[]"
        },
        {
          "internalType": "bytes",
          "name": "data",
          "type": "bytes"
        }
      ],
      "name": "safeBatchTransferFrom",
      "outputs": [],
      "stateMutability": "nonpayable",
      "type": "function"
    },
    {
      "inputs": [
        {
          "internalType": "address",
          "name": "from",
          "type": "address"
        },
        {
          "internalType": "address",
          "name": "to",
          "type": "address"
        },
        {
          "internalType": "uint256",
          "name": "id",
          "type": "uint256"
        },
        {
          "internalType": "uint256",
          "name": "amount",
          "type": "uint256"
        },
        {
          "internalType": "bytes",
          "name": "data",
          "type": "bytes"
        }
      ],
      "name": "safeTransferFrom",
      "outputs": [],
      "stateMutability": "nonpayable",
      "type": "function"
    },
    {
      "inputs": [
        {
          "internalType": "address",
          "name": "operator",
          "type": "address"
        },
        {
          "internalType": "bool",
          "name": "approved",
          "type": "bool"
        }
      ],
      "name": "setApprovalForAll",
      "outputs": [],
      "stateMutability": "nonpayable",
      "type": "function"
    },
    {
      "inputs": [
        {
          "internalType": "bytes4",
          "name": "interfaceId",
          "type": "bytes4"
        }
      ],
      "name": "supportsInterface",
      "outputs": [
        {
          "internalType": "bool",
          "name": "",
          "type": "bool"
        }
      ],
      "stateMutability": "view",
      "type": "function",
      "constant": true
    },
    {
      "inputs": [
        {
          "internalType": "address",
          "name": "newOwner",
          "type": "address"
        }
      ],
      "name": "transferOwnership",
      "outputs": [],
      "stateMutability": "nonpayable",
      "type": "function"
    },
    {
      "inputs": [
        {
          "internalType": "uint256",
          "name": "",
          "type": "uint256"
        }
      ],
      "name": "uri",
      "outputs": [
        {
          "internalType": "string",
          "name": "",
          "type": "string"
        }
      ],
      "stateMutability": "view",
      "type": "function",
      "constant": true
    },
    {
      "inputs": [
        {
          "internalType": "address",
          "name": "_to",
          "type": "address"
        },
        {
          "internalType": "uint256[]",
          "name": "_ids",
          "type": "uint256[]"
        },
        {
          "internalType": "uint256[]",
          "name": "_amounts",
          "type": "uint256[]"
        },
        {
          "internalType": "bytes",
          "name": "_data",
          "type": "bytes"
        }
      ],
      "name": "mintBatch",
      "outputs": [],
      "stateMutability": "nonpayable",
      "type": "function"
    }
  ],
  "bytecode": "0x60806040523480156200001157600080fd5b506040518060600160405280603f815260200162002004603f91396200003781620003dd565b506200004333620003f6565b600460208190527f17ef568e3e12ab5b9c7254a8d58478811de00f9e6eb34345acd53bf8fd09d3ec81905560097fabd6e7cb50984ff9c2f3e18a2660c3353dadf4e3291deeb275dae2cd1e44fe055560027f91da3fd0782e51c6b3986e9e672fd566868e71f3dbc2d6c2cd6fbb3e361af2a78190557f2e174c10e159ea99b867ce3205125c24a42d128804e4070ed6fcc8cc98166aa08290557f1a1e6821cde7d0159c0d293177871e09677b4e42307c7db3ba94f8648a5a050f82905560037f04cde762ef08b6b6c5ded8e8c4c0b3f4e5c9ad7342c88fcc93681b4588b73f0581905560087fc59312466997bb42aaaf719ece141047820e6b34531e1670dc1852a453648f0f8190557fbeb3bad75134cb432e5707980e3245c52c5998a1125ee30f2f0dbf3925b1e5518290557f2645749a946633740611cfc8178319f0958659d6922e4bf7e3a08b44789f53a48290557f4ad5a04d53b5856f318545bb721f67d3f6d0a5a999f25eec7e20eaeb4c47b9338290557f5c6b02db8b672415ffad906d7ccee10bd53dbad7d0b29e2bc0e50c93d5f3109382905560057f0c1469ad586d86b6976c45826d7ae56d76ee516e37a2bccffbe904b74dbae7ea8190557f140aabff1a85df08546c9a350c79ae18341bde4a2cef5d2fd460885c0128ce268490557fa5022b2bfd144bf9103d80168549b5df7c72ab60bd51bf71a02a08d844853b4a939093557feb3e677499e881fe1bdbc344a49c412138038a9f40883b6dc68f713aab4835238290557f66b61daf77b854ca6ba000a8d4b340eafcdb71b6583753b4af89fceb54988fff8490557f4a597304b2df0a7a7b428b3c24c35ba6373aabebf9972387f5610f74a01b21bd557fac375bcb880242328180c23d4a918023a12a7caf7cf12b8c4074e4a3f39900a0919091557f7f6fa3f34639ea1891363ca773619dbd5f652d7ab50411111dde2f57e3ae13ad8290557f9bbf2ad10217b6212df1939350a047a69b6887b770020d3fa8c328c0653ee987557ff7deed9399d719bf61dcb1322c056a03a885c275ab093673b0cc182b84bea06181905560067f1bb30a1647f6f6723cb3a88838ce0319afabe51263fc466f2f669a7a24ad88c6557f87e655ef16e4075af30c6a90c2b439f7dcd2d83a606dafadaee10cffaf9181328190557fff624574ceefb6578b3887a7448cf2ca4d120002f646987b0a9b9ad3f6dc2c1081905560186000527f1ac66383b86984a837d32661c9fdda480194de6e2dbd3891e29fadcb763a62da556200052b565b8051620003f290600290602084019062000448565b5050565b600380546001600160a01b038381166001600160a01b0319831681179093556040519116919082907f8be0079c531659141344cd1fd0a4f28419497f9722a3daafe3b4186f6b6457e090600090a35050565b8280546200045690620004ee565b90600052602060002090601f0160209004810192826200047a5760008555620004c5565b82601f106200049557805160ff1916838001178555620004c5565b82800160010185558215620004c5579182015b82811115620004c5578251825591602001919060010190620004a8565b50620004d3929150620004d7565b5090565b5b80821115620004d35760008155600101620004d8565b600181811c908216806200050357607f821691505b602082108114156200052557634e487b7160e01b600052602260045260246000fd5b50919050565b611ac9806200053b6000396000f3fe608060405234801561001057600080fd5b50600436106102265760003560e01c8063568184b511610130578063b745020c116100b8578063f242432a1161007c578063f242432a146103fe578063f2fde38b14610411578063f33de1b214610424578063f598dfc81461042c578063fa9dad731461043457600080fd5b8063b745020c146103a2578063b9af6768146103aa578063ce4aa00c146103b2578063e985e9c5146103ba578063f03218a0146103f657600080fd5b80638da5cb5b116100ff5780638da5cb5b1461035c578063a22cb46514610377578063a4c37cf71461038a578063b3bc887014610392578063b5da507d1461039a57600080fd5b8063568184b51461033c578063715018a61461034457806374d21f081461034c5780638123da361461035457600080fd5b8063251886a0116101b35780632eb2c2d6116101825780632eb2c2d6146102f157806332cada551461030457806339e548541461030c5780633fd41d89146103145780634e1273f41461031c57600080fd5b8063251886a0146102d15780632a319c6a146102d95780632a74116c146102e15780632b777043146102e957600080fd5b80630e89341c116101fa5780630e89341c1461028457806319fc3dce146102a45780631c092019146102ac5780631f7fdffa146102b4578063231fa4d1146102c957600080fd5b8062fdd58e1461022b57806301ffc9a714610251578063086d2b8c146102745780630b64ae741461027c575b600080fd5b61023e6102393660046111bb565b61043c565b6040519081526020015b60405180910390f35b61026461025f3660046111fb565b6104d3565b6040519015158152602001610248565b61023e601281565b61023e600681565b61029761029236600461121f565b610525565b6040516102489190611285565b61023e600381565b61023e601581565b6102c76102c23660046113e4565b6105b9565b005b61023e601481565b61023e600181565b61023e600c81565b61023e600981565b61023e600781565b6102c76102ff36600461147d565b6106c1565b61023e601381565b61023e601081565b61023e600e81565b61032f61032a366004611527565b610751565b604051610248919061162d565b61023e600481565b6102c761087b565b61023e601781565b61023e600a81565b6003546040516001600160a01b039091168152602001610248565b6102c7610385366004611640565b6108e1565b61023e600881565b61023e601881565b61023e601681565b61023e600b81565b61023e600281565b61023e600081565b6102646103c836600461167c565b6001600160a01b03918216600090815260016020908152604080832093909416825291909152205460ff1690565b61023e600d81565b6102c761040c3660046116af565b6109b8565b6102c761041f366004611714565b610a3f565b61023e600581565b61023e601181565b61023e600f81565b60006001600160a01b0383166104ad5760405162461bcd60e51b815260206004820152602b60248201527f455243313135353a2062616c616e636520717565727920666f7220746865207a60448201526a65726f206164647265737360a81b60648201526084015b60405180910390fd5b506000908152602081815260408083206001600160a01b03949094168352929052205490565b60006001600160e01b03198216636cdb3d1360e11b148061050457506001600160e01b031982166303a24d0760e21b145b8061051f57506301ffc9a760e01b6001600160e01b03198316145b92915050565b6060600280546105349061172f565b80601f01602080910402602001604051908101604052809291908181526020018280546105609061172f565b80156105ad5780601f10610582576101008083540402835291602001916105ad565b820191906000526020600020905b81548152906001019060200180831161059057829003601f168201915b50505050509050919050565b81518351146105da5760405162461bcd60e51b81526004016104a49061176a565b60005b83518110156106ba5760008482815181106105fa576105fa6117b2565b602002602001015190506000848381518110610618576106186117b2565b6020026020010151905060006004600084815260200190815260200160002054116106745760405162461bcd60e51b815260206004820152600c60248201526b4f7574206f662053746f636b60a01b60448201526064016104a4565b61068087838387610b0a565b6000828152600460205260408120805483929061069e9084906117de565b92505081905550505080806106b2906117f5565b9150506105dd565b5050505050565b6001600160a01b0385163314806106dd57506106dd85336103c8565b6107445760405162461bcd60e51b815260206004820152603260248201527f455243313135353a207472616e736665722063616c6c6572206973206e6f74206044820152711bdddb995c881b9bdc88185c1c1c9bdd995960721b60648201526084016104a4565b6106ba8585858585610c14565b606081518351146107b65760405162461bcd60e51b815260206004820152602960248201527f455243313135353a206163636f756e747320616e6420696473206c656e677468604482015268040dad2e6dac2e8c6d60bb1b60648201526084016104a4565b6000835167ffffffffffffffff8111156107d2576107d2611298565b6040519080825280602002602001820160405280156107fb578160200160208202803683370190505b50905060005b84518110156108735761084685828151811061081f5761081f6117b2565b6020026020010151858381518110610839576108396117b2565b602002602001015161043c565b828281518110610858576108586117b2565b602090810291909101015261086c816117f5565b9050610801565b509392505050565b6003546001600160a01b031633146108d55760405162461bcd60e51b815260206004820181905260248201527f4f776e61626c653a2063616c6c6572206973206e6f7420746865206f776e657260448201526064016104a4565b6108df6000610db0565b565b336001600160a01b038316141561094c5760405162461bcd60e51b815260206004820152602960248201527f455243313135353a2073657474696e6720617070726f76616c20737461747573604482015268103337b91039b2b63360b91b60648201526084016104a4565b3360008181526001602090815260408083206001600160a01b03871680855290835292819020805460ff191686151590811790915590519081529192917f17307eab39ab6107e8899845ad3d59bd9653f200f220920489ca2b5937696c31910160405180910390a35050565b6001600160a01b0385163314806109d457506109d485336103c8565b610a325760405162461bcd60e51b815260206004820152602960248201527f455243313135353a2063616c6c6572206973206e6f74206f776e6572206e6f7260448201526808185c1c1c9bdd995960ba1b60648201526084016104a4565b6106ba8585858585610e02565b6003546001600160a01b03163314610a995760405162461bcd60e51b815260206004820181905260248201527f4f776e61626c653a2063616c6c6572206973206e6f7420746865206f776e657260448201526064016104a4565b6001600160a01b038116610afe5760405162461bcd60e51b815260206004820152602660248201527f4f776e61626c653a206e6577206f776e657220697320746865207a65726f206160448201526564647265737360d01b60648201526084016104a4565b610b0781610db0565b50565b6001600160a01b038416610b6a5760405162461bcd60e51b815260206004820152602160248201527f455243313135353a206d696e7420746f20746865207a65726f206164647265736044820152607360f81b60648201526084016104a4565b33610b8481600087610b7b88610f1f565b6106ba88610f1f565b6000848152602081815260408083206001600160a01b038916845290915281208054859290610bb4908490611810565b909155505060408051858152602081018590526001600160a01b0380881692600092918516917fc3d58168c5ae7397731d063d5bbf3d657854427343f4c083240f7aacaa2d0f62910160405180910390a46106ba81600087878787610f6a565b8151835114610c355760405162461bcd60e51b81526004016104a49061176a565b6001600160a01b038416610c5b5760405162461bcd60e51b81526004016104a490611828565b3360005b8451811015610d42576000858281518110610c7c57610c7c6117b2565b602002602001015190506000858381518110610c9a57610c9a6117b2565b602090810291909101810151600084815280835260408082206001600160a01b038e168352909352919091205490915081811015610cea5760405162461bcd60e51b81526004016104a49061186d565b6000838152602081815260408083206001600160a01b038e8116855292528083208585039055908b16825281208054849290610d27908490611810565b9250508190555050505080610d3b906117f5565b9050610c5f565b50846001600160a01b0316866001600160a01b0316826001600160a01b03167f4a39dc06d4c0dbc64b70af90fd698a233a518aa5d07e595d983b8c0526c8f7fb8787604051610d929291906118b7565b60405180910390a4610da88187878787876110d5565b505050505050565b600380546001600160a01b038381166001600160a01b0319831681179093556040519116919082907f8be0079c531659141344cd1fd0a4f28419497f9722a3daafe3b4186f6b6457e090600090a35050565b6001600160a01b038416610e285760405162461bcd60e51b81526004016104a490611828565b33610e38818787610b7b88610f1f565b6000848152602081815260408083206001600160a01b038a16845290915290205483811015610e795760405162461bcd60e51b81526004016104a49061186d565b6000858152602081815260408083206001600160a01b038b8116855292528083208785039055908816825281208054869290610eb6908490611810565b909155505060408051868152602081018690526001600160a01b03808916928a821692918616917fc3d58168c5ae7397731d063d5bbf3d657854427343f4c083240f7aacaa2d0f62910160405180910390a4610f16828888888888610f6a565b50505050505050565b60408051600180825281830190925260609160009190602080830190803683370190505090508281600081518110610f5957610f596117b2565b602090810291909101015292915050565b6001600160a01b0384163b15610da85760405163f23a6e6160e01b81526001600160a01b0385169063f23a6e6190610fae90899089908890889088906004016118e5565b602060405180830381600087803b158015610fc857600080fd5b505af1925050508015610ff8575060408051601f3d908101601f19168201909252610ff59181019061192a565b60015b6110a557611004611947565b806308c379a0141561103e5750611019611963565b806110245750611040565b8060405162461bcd60e51b81526004016104a49190611285565b505b60405162461bcd60e51b815260206004820152603460248201527f455243313135353a207472616e7366657220746f206e6f6e20455243313135356044820152732932b1b2b4bb32b91034b6b83632b6b2b73a32b960611b60648201526084016104a4565b6001600160e01b0319811663f23a6e6160e01b14610f165760405162461bcd60e51b81526004016104a4906119ed565b6001600160a01b0384163b15610da85760405163bc197c8160e01b81526001600160a01b0385169063bc197c81906111199089908990889088908890600401611a35565b602060405180830381600087803b15801561113357600080fd5b505af1925050508015611163575060408051601f3d908101601f191682019092526111609181019061192a565b60015b61116f57611004611947565b6001600160e01b0319811663bc197c8160e01b14610f165760405162461bcd60e51b81526004016104a4906119ed565b80356001600160a01b03811681146111b657600080fd5b919050565b600080604083850312156111ce57600080fd5b6111d78361119f565b946020939093013593505050565b6001600160e01b031981168114610b0757600080fd5b60006020828403121561120d57600080fd5b8135611218816111e5565b9392505050565b60006020828403121561123157600080fd5b5035919050565b6000815180845260005b8181101561125e57602081850181015186830182015201611242565b81811115611270576000602083870101525b50601f01601f19169290920160200192915050565b6020815260006112186020830184611238565b634e487b7160e01b600052604160045260246000fd5b601f8201601f1916810167ffffffffffffffff811182821017156112d4576112d4611298565b6040525050565b600067ffffffffffffffff8211156112f5576112f5611298565b5060051b60200190565b600082601f83011261131057600080fd5b8135602061131d826112db565b60405161132a82826112ae565b83815260059390931b850182019282810191508684111561134a57600080fd5b8286015b84811015611365578035835291830191830161134e565b509695505050505050565b600082601f83011261138157600080fd5b813567ffffffffffffffff81111561139b5761139b611298565b6040516113b2601f8301601f1916602001826112ae565b8181528460208386010111156113c757600080fd5b816020850160208301376000918101602001919091529392505050565b600080600080608085870312156113fa57600080fd5b6114038561119f565b9350602085013567ffffffffffffffff8082111561142057600080fd5b61142c888389016112ff565b9450604087013591508082111561144257600080fd5b61144e888389016112ff565b9350606087013591508082111561146457600080fd5b5061147187828801611370565b91505092959194509250565b600080600080600060a0868803121561149557600080fd5b61149e8661119f565b94506114ac6020870161119f565b9350604086013567ffffffffffffffff808211156114c957600080fd5b6114d589838a016112ff565b945060608801359150808211156114eb57600080fd5b6114f789838a016112ff565b9350608088013591508082111561150d57600080fd5b5061151a88828901611370565b9150509295509295909350565b6000806040838503121561153a57600080fd5b823567ffffffffffffffff8082111561155257600080fd5b818501915085601f83011261156657600080fd5b81356020611573826112db565b60405161158082826112ae565b83815260059390931b85018201928281019150898411156115a057600080fd5b948201945b838610156115c5576115b68661119f565b825294820194908201906115a5565b965050860135925050808211156115db57600080fd5b506115e8858286016112ff565b9150509250929050565b600081518084526020808501945080840160005b8381101561162257815187529582019590820190600101611606565b509495945050505050565b60208152600061121860208301846115f2565b6000806040838503121561165357600080fd5b61165c8361119f565b91506020830135801515811461167157600080fd5b809150509250929050565b6000806040838503121561168f57600080fd5b6116988361119f565b91506116a66020840161119f565b90509250929050565b600080600080600060a086880312156116c757600080fd5b6116d08661119f565b94506116de6020870161119f565b93506040860135925060608601359150608086013567ffffffffffffffff81111561170857600080fd5b61151a88828901611370565b60006020828403121561172657600080fd5b6112188261119f565b600181811c9082168061174357607f821691505b6020821081141561176457634e487b7160e01b600052602260045260246000fd5b50919050565b60208082526028908201527f455243313135353a2069647320616e6420616d6f756e7473206c656e677468206040820152670dad2e6dac2e8c6d60c31b606082015260800190565b634e487b7160e01b600052603260045260246000fd5b634e487b7160e01b600052601160045260246000fd5b6000828210156117f0576117f06117c8565b500390565b6000600019821415611809576118096117c8565b5060010190565b60008219821115611823576118236117c8565b500190565b60208082526025908201527f455243313135353a207472616e7366657220746f20746865207a65726f206164604082015264647265737360d81b606082015260800190565b6020808252602a908201527f455243313135353a20696e73756666696369656e742062616c616e636520666f60408201526939103a3930b739b332b960b11b606082015260800190565b6040815260006118ca60408301856115f2565b82810360208401526118dc81856115f2565b95945050505050565b6001600160a01b03868116825285166020820152604081018490526060810183905260a06080820181905260009061191f90830184611238565b979650505050505050565b60006020828403121561193c57600080fd5b8151611218816111e5565b600060033d11156119605760046000803e5060005160e01c5b90565b600060443d10156119715790565b6040516003193d81016004833e81513d67ffffffffffffffff81602484011181841117156119a157505050505090565b82850191508151818111156119b95750505050505090565b843d87010160208285010111156119d35750505050505090565b6119e2602082860101876112ae565b509095945050505050565b60208082526028908201527f455243313135353a204552433131353552656365697665722072656a656374656040820152676420746f6b656e7360c01b606082015260800190565b6001600160a01b0386811682528516602082015260a060408201819052600090611a61908301866115f2565b8281036060840152611a7381866115f2565b90508281036080840152611a878185611238565b9897505050505050505056fea26469706673582212203e7bd8cc3098f42ddb6b46f66267c72e8f8f5e9d2000f1f64187863a9979ac9564736f6c63430008090033697066733a2f2f516d516d713650694c527a70373446316e6a7a52674d72587043335448326a5548344533716932454d4b71635a372f7b69647d2e6a736f6e",
  "immutableReferences": {},
  "source": "// SPDX-License-Identifier: MIT\r\npragma solidity ^0.8.0;\r\n\r\nimport \"@openzeppelin/contracts/token/ERC1155/ERC1155.sol\";\r\nimport \"@openzeppelin/contracts/access/Ownable.sol\";\r\n\r\ncontract familyAus1155 is ERC1155, Ownable {\r\n\r\n    uint256 public constant Blue_xs = 0;\r\n    uint256 public constant Blue_s = 1;\r\n    uint256 public constant Blue_m = 2;\r\n    uint256 public constant Blue_l = 3;\r\n    uint256 public constant Blue_xl = 4;\r\n    uint256 public constant Choc_xs = 5;\r\n    uint256 public constant Choc_s = 6;\r\n    uint256 public constant Choc_m = 7;\r\n    uint256 public constant Choc_l = 8;\r\n    uint256 public constant Choc_xl = 9;\r\n    uint256 public constant Grn_xs = 10;\r\n    uint256 public constant Grn_s = 11;\r\n    uint256 public constant Grn_m = 12;\r\n    uint256 public constant Grn_l = 13;\r\n    uint256 public constant Grn_xl = 14;\r\n    uint256 public constant Olve_xs = 15;\r\n    uint256 public constant Olve_s = 16;\r\n    uint256 public constant Olve_m = 17;\r\n    uint256 public constant Olve_l = 18;\r\n    uint256 public constant Olve_xl = 19;\r\n    uint256 public constant Sand_xs = 20;\r\n    uint256 public constant Sand_s = 21;\r\n    uint256 public constant Sand_m = 22;\r\n    uint256 public constant Sand_l = 23;\r\n    uint256 public constant Sand_xl = 24;\r\n\r\n    mapping (uint => uint) stock;\r\n\r\n\r\n    constructor() ERC1155(\"ipfs://QmQmq6PiLRzp74F1njzRgMrXpC3TH2jUH4E3qi2EMKqcZ7/{id}.json\") {\r\n            \r\n        stock[0] = 4;\r\n        stock[1] = 9;\r\n        stock[2] = 2;\r\n        stock[3] = 4;\r\n        stock[4] = 4;\r\n        stock[5] = 3;\r\n        stock[6] = 8;\r\n        stock[7] = 3;\r\n        stock[8] = 3;\r\n        stock[9] = 3;\r\n        stock[10] = 3;\r\n        stock[11] = 5;\r\n        stock[12] = 2;\r\n        stock[13] = 2;\r\n        stock[14] = 3;\r\n        stock[15] = 4;\r\n        stock[16] = 8;\r\n        stock[17] = 5;\r\n        stock[18] = 4;\r\n        stock[19] = 3;\r\n        stock[20] = 4;\r\n        stock[21] = 6;\r\n        stock[22] = 4;\r\n        stock[23] = 4;\r\n        stock[24] = 4;\r\n    }\r\n\r\n\r\n    function mintBatch(\r\n        address _to,\r\n        uint256[] memory _ids,\r\n        uint256[] memory _amounts,\r\n        bytes memory _data\r\n    ) public {\r\n        require(_ids.length == _amounts.length, \"ERC1155: ids and amounts length mismatch\");\r\n        for (uint i=0; i<_ids.length; i++) {\r\n            uint id = _ids[i];\r\n            uint amount = _amounts[i];\r\n            require(stock[id] > 0, \"Out of Stock\");\r\n        \r\n            _mint(_to, id, amount, _data);\r\n        \r\n            stock[id] -= amount;\r\n        }\r\n    }\r\n    \r\n\r\n}",
  "sourcePath": "C:\\Users\\Ren\\Desktop\\familyAus\\src\\contracts\\familyAus1155.sol",
  "compiler": {
    "name": "solc",
    "version": "0.8.9+commit.e5eed63a.Emscripten.clang"
  },
  "schemaVersion": "3.4.3",
  "updatedAt": "2021-10-03T02:48:35.961Z",
  "networkType": "ethereum",
  "devdoc": {
    "kind": "dev",
    "methods": {
      "balanceOf(address,uint256)": {
        "details": "See {IERC1155-balanceOf}. Requirements: - `account` cannot be the zero address."
      },
      "balanceOfBatch(address[],uint256[])": {
        "details": "See {IERC1155-balanceOfBatch}. Requirements: - `accounts` and `ids` must have the same length."
      },
      "isApprovedForAll(address,address)": {
        "details": "See {IERC1155-isApprovedForAll}."
      },
      "owner()": {
        "details": "Returns the address of the current owner."
      },
      "renounceOwnership()": {
        "details": "Leaves the contract without owner. It will not be possible to call `onlyOwner` functions anymore. Can only be called by the current owner. NOTE: Renouncing ownership will leave the contract without an owner, thereby removing any functionality that is only available to the owner."
      },
      "safeBatchTransferFrom(address,address,uint256[],uint256[],bytes)": {
        "details": "See {IERC1155-safeBatchTransferFrom}."
      },
      "safeTransferFrom(address,address,uint256,uint256,bytes)": {
        "details": "See {IERC1155-safeTransferFrom}."
      },
      "setApprovalForAll(address,bool)": {
        "details": "See {IERC1155-setApprovalForAll}."
      },
      "supportsInterface(bytes4)": {
        "details": "See {IERC165-supportsInterface}."
      },
      "transferOwnership(address)": {
        "details": "Transfers ownership of the contract to a new account (`newOwner`). Can only be called by the current owner."
      },
      "uri(uint256)": {
        "details": "See {IERC1155MetadataURI-uri}. This implementation returns the same URI for *all* token types. It relies on the token type ID substitution mechanism https://eips.ethereum.org/EIPS/eip-1155#metadata[defined in the EIP]. Clients calling this function must replace the `\\{id\\}` substring with the actual token type ID."
      }
    },
    "version": 1
  },
  "userdoc": {
    "kind": "user",
    "methods": {},
    "version": 1
  }
}